{
  "contractName": "CDTRegistry",
  "abi": [
    {
      "inputs": [],
      "payable": false,
      "stateMutability": "nonpayable",
      "type": "constructor"
    },
    {
      "anonymous": false,
      "inputs": [
        {
          "indexed": true,
          "name": "_cdt",
          "type": "bytes32"
        },
        {
          "indexed": true,
          "name": "_owner",
          "type": "address"
        },
        {
          "indexed": true,
          "name": "_checksum",
          "type": "bytes32"
        },
        {
          "indexed": false,
          "name": "_value",
          "type": "string"
        },
        {
          "indexed": false,
          "name": "_lastUpdatedBy",
          "type": "address"
        },
        {
          "indexed": false,
          "name": "_blockNumberUpdated",
          "type": "uint256"
        }
      ],
      "name": "CDTAttributeRegistered",
      "type": "event"
    },
    {
      "anonymous": false,
      "inputs": [
        {
          "indexed": true,
          "name": "_cdt",
          "type": "bytes32"
        },
        {
          "indexed": true,
          "name": "_owner",
          "type": "address"
        },
        {
          "indexed": true,
          "name": "_grantee",
          "type": "bytes32"
        }
      ],
      "name": "CDTPermissionGranted",
      "type": "event"
    },
    {
      "anonymous": false,
      "inputs": [
        {
          "indexed": true,
          "name": "_member",
          "type": "address"
        },
        {
          "indexed": true,
          "name": "_name",
          "type": "string"
        }
      ],
      "name": "AuthorityAdded",
      "type": "event"
    },
    {
      "constant": false,
      "inputs": [
        {
          "name": "_member",
          "type": "address"
        },
        {
          "name": "_name",
          "type": "string"
        }
      ],
      "name": "addAuthority",
      "outputs": [
        {
          "name": "size",
          "type": "uint256"
        }
      ],
      "payable": false,
      "stateMutability": "nonpayable",
      "type": "function"
    },
    {
      "constant": false,
      "inputs": [
        {
          "name": "_cdt",
          "type": "bytes32"
        },
        {
          "name": "_checksum",
          "type": "bytes32"
        },
        {
          "name": "_value",
          "type": "string"
        }
      ],
      "name": "registerAttribute",
      "outputs": [
        {
          "name": "size",
          "type": "uint256"
        }
      ],
      "payable": false,
      "stateMutability": "nonpayable",
      "type": "function"
    },
    {
      "constant": false,
      "inputs": [
        {
          "name": "_cdt",
          "type": "bytes32"
        },
        {
          "name": "_grantee",
          "type": "bytes32"
        }
      ],
      "name": "grantPermission",
      "outputs": [],
      "payable": false,
      "stateMutability": "nonpayable",
      "type": "function"
    },
    {
      "constant": true,
      "inputs": [
        {
          "name": "_cdt",
          "type": "bytes32"
        },
        {
          "name": "_grantee",
          "type": "bytes32"
        }
      ],
      "name": "getPermission",
      "outputs": [
        {
          "name": "",
          "type": "bool"
        }
      ],
      "payable": false,
      "stateMutability": "view",
      "type": "function"
    },
    {
      "constant": true,
      "inputs": [
        {
          "name": "_cdt",
          "type": "bytes32"
        }
      ],
      "name": "getCDTRegister",
      "outputs": [
        {
          "name": "owner",
          "type": "address"
        },
        {
          "name": "lastChecksum",
          "type": "bytes32"
        },
        {
          "name": "lastUpdatedBy",
          "type": "address"
        },
        {
          "name": "blockNumberUpdated",
          "type": "uint256"
        }
      ],
      "payable": false,
      "stateMutability": "view",
      "type": "function"
    },
    {
      "constant": true,
      "inputs": [
        {
          "name": "_cdt",
          "type": "bytes32"
        }
      ],
      "name": "getCDTOwner",
      "outputs": [
        {
          "name": "CDTOwner",
          "type": "address"
        }
      ],
      "payable": false,
      "stateMutability": "view",
      "type": "function"
    },
    {
      "constant": true,
      "inputs": [
        {
          "name": "_cdt",
          "type": "bytes32"
        }
      ],
      "name": "getBlockNumberUpdated",
      "outputs": [
        {
          "name": "blockNumberUpdated",
          "type": "uint256"
        }
      ],
      "payable": false,
      "stateMutability": "view",
      "type": "function"
    },
    {
      "constant": true,
      "inputs": [
        {
          "name": "_member",
          "type": "address"
        }
      ],
      "name": "isAuthority",
      "outputs": [
        {
          "name": "",
          "type": "bool"
        }
      ],
      "payable": false,
      "stateMutability": "view",
      "type": "function"
    }
  ],
  "bytecode": "0x608060405234801561001057600080fd5b50336000908152600560205260409020805460ff191660011790556108418061003a6000396000f3fe608060405234801561001057600080fd5b50600436106100885760003560e01c80633ca1d75f1161005b5780633ca1d75f1461020257806355e5bfd1146102b8578063911925bf146102db578063bbc1dede1461031457610088565b806303b0024c1461008d57806312022a16146100b25780632330f2471461010457806333a330bd1461013e575b600080fd5b6100b0600480360360408110156100a357600080fd5b5080359060200135610331565b005b6100cf600480360360208110156100c857600080fd5b50356103aa565b604080516001600160a01b03958616815260208101949094529190931682820152606082019290925290519081900360800190f35b61012a6004803603602081101561011a57600080fd5b50356001600160a01b03166103df565b604080519115158252519081900360200190f35b6101f06004803603606081101561015457600080fd5b81359160208101359181019060608101604082013564010000000081111561017b57600080fd5b82018360208201111561018d57600080fd5b803590602001918460018302840111640100000000831117156101af57600080fd5b91908080601f016020809104026020016040519081016040528093929190818152602001838380828437600092019190915250929550610401945050505050565b60408051918252519081900360200190f35b6101f06004803603604081101561021857600080fd5b6001600160a01b03823516919081019060408101602082013564010000000081111561024357600080fd5b82018360208201111561025557600080fd5b8035906020019184600183028401116401000000008311171561027757600080fd5b91908080601f0160208091040260200160405190810160405280939291908181526020018383808284376000920191909152509295506105d1945050505050565b61012a600480360360408110156102ce57600080fd5b50803590602001356107c5565b6102f8600480360360208110156102f157600080fd5b50356107e5565b604080516001600160a01b039092168252519081900360200190f35b6101f06004803603602081101561032a57600080fd5b5035610800565b60008281526020819052604090205482906001600160a01b0316331461035657600080fd5b6000838152600460209081526040808320858452909152808220805460ff19166001179055518391339186917f74b9382bbfa8ffdd0d05c862641e62727a9e95bb8accaeed1b5a506b86956c9791a4505050565b60009081526020819052604090208054600182015460028301546003909301546001600160a01b039283169491939092169190565b6001600160a01b03166000908152600260208190526040909120015460ff1690565b3360009081526002602081905260408220015460ff16151560011461042557600080fd5b6000848152602081905260409020546001600160a01b0316158061045f57506000848152602081905260409020546001600160a01b031633145b61046857600080fd5b60408051600160e01b63a880616d0281526000600482018190526024820187905260448201869052915173__CDTLibrary____________________________9163a880616d916064808301926020929190829003018186803b1580156104cd57600080fd5b505af41580156104e1573d6000803e3d6000fd5b505050506040513d60208110156104f757600080fd5b5051600086815260208181526040808320548151338185018190524393820184905260608083528a519083015289519697508a966001600160a01b03909316958c957ffd25a49520d1b1bdd1f245380b41078116febec1f6ccf086d775aa6c37ac03f2958c9593949093909283926080840192908801918190849084905b8381101561058d578181015183820152602001610575565b50505050905090810190601f1680156105ba5780820380516001836020036101000a031916815260200191505b5094505050505060405180910390a4949350505050565b3360009081526005602052604081205460ff1615156001146105f257600080fd5b6001600160a01b0383166000908152600260208190526040909120015460ff1615801561062757506001600160a01b03831615155b61063057600080fd5b604051600160e31b631675bc8d0281526002600482018181526001600160a01b038616602484015260606044840190815285516064850152855160009473__AuthorityLibrary______________________9463b3ade4689490938a938a936084019060208501908083838d5b838110156106b557818101518382015260200161069d565b50505050905090810190601f1680156106e25780820380516001836020036101000a031916815260200191505b5094505050505060206040518083038186803b15801561070157600080fd5b505af4158015610715573d6000803e3d6000fd5b505050506040513d602081101561072b57600080fd5b505160405184519192508491819060208401908083835b602083106107615780518252601f199092019160209182019101610742565b5181516020939093036101000a6000190180199091169216919091179052604051920182900382209350506001600160a01b03871691507f199b0411693bcb0682b72bf28794f443fb997a728d921a5b4bd0fde9e908b1c990600090a39392505050565b600091825260046020908152604080842092845291905290205460ff1690565b6000908152602081905260409020546001600160a01b031690565b6000908152602081905260409020600301549056fea165627a7a7230582065e87cb6dd129ed382082763ec805180496fc28c61f5ac489d3d0c0c050eb1830029",
  "source": "pragma solidity 0.5.6;\n\nimport './Library.sol';\n/**\n * @title CDT主要功能\n * @author lqb\n */\ncontract CDTRegistry {\n    \n    // CDT注册表状态存储\n    using CDTLibrary for CDTLibrary.CDTList;    \n    // 机构注册表状态存储, 只有机构可以添加CDT\n    using AuthorityLibrary for AuthorityLibrary.AuthorityList;\n\n    CDTLibrary.CDTList internal cdtList;\n    AuthorityLibrary.AuthorityList internal authorityList;\n    \n    // CDT->授权CDT->是否具有权限\n    mapping(bytes32 => mapping(bytes32 => bool)) CDTPermissions;\n    \n    // 只有管理员可以增加机构\n    mapping(address => bool) private isAdmin;\n    \n    // _value并不存储在链上，而是记录在事件日志, 例如ddo的ipfs_path\n    event CDTAttributeRegistered(\n        bytes32 indexed _cdt,\n        address indexed _owner,\n        bytes32 indexed _checksum,\n        string _value,\n        address _lastUpdatedBy,\n        uint256 _blockNumberUpdated\n    );\n    \n    event CDTPermissionGranted(\n        bytes32 indexed _cdt,\n        address indexed _owner,\n        bytes32 indexed _grantee\n    );\n\n    event AuthorityAdded(\n        address indexed _member,\n        string indexed _name\n    );\n    \n    // 只有管理员可以进行相应的操作\n    modifier onlyAdmin()\n    {\n        require(\n            isAdmin[msg.sender] == true\n        );\n        _;\n    }\n    \n    // 只有注册机构可以进行相应的操作\n    modifier onlyAuthority()\n    {\n        require(\n           authorityList.authorities[msg.sender].isAuthority == true\n        );\n        _;\n    }\n    \n    // 只有CDT拥有者可以进行相应的操作\n    modifier onlyCDTOwner(bytes32 _cdt)\n    {\n        require(\n            msg.sender == cdtList.cdts[_cdt].owner\n        );\n        _;\n    }\n\n\tconstructor() public {\n\t\tisAdmin[msg.sender] = true;\n\t}\n    \n    // 添加新的机构，只有系统管理员可以进行该操作\n    function addAuthority(\n        address _member,\n        string memory _name\n    )\n        onlyAdmin()\n        public\n        returns (uint size)\n    {\n        require(\n            authorityList.authorities[_member].isAuthority == false &&\n            _member != address(0)\n        );\n\n        uint updatedSize = authorityList.update(_member, _name);\n\n        emit AuthorityAdded(\n            _member,\n            _name\n        );\n\n        return updatedSize;\n\n    }\n    \n    // 注册/更新CDT\n    function registerAttribute(\n        bytes32 _cdt,\n        bytes32 _checksum,\n        string memory _value\n    )\n        onlyAuthority()\n        public\n        returns (uint size)\n    {\n        require(\n            cdtList.cdts[_cdt].owner == address(0x0) ||\n            cdtList.cdts[_cdt].owner == msg.sender\n        );\n\n        uint updatedSize = cdtList.update(_cdt, _checksum);\n\n        emit CDTAttributeRegistered(\n            _cdt,\n            cdtList.cdts[_cdt].owner,\n            _checksum,\n            _value,\n            msg.sender,\n            block.number\n        );\n\n        return updatedSize;\n    }\n    \n    // 将cdt授权给另一地址，只有cdt拥有者可以进行该操作\n    function grantPermission(\n        bytes32 _cdt,\n        bytes32 _grantee\n    )\n        external\n        onlyCDTOwner(_cdt)\n    {\n        CDTPermissions[_cdt][_grantee] = true;\n        emit CDTPermissionGranted(\n            _cdt,\n            msg.sender,\n            _grantee\n        );\n    }\n    \n    // 判断某地址是否得到该cdt的授权\n    function getPermission(\n        bytes32 _cdt,\n        bytes32 _grantee\n    )\n        external\n        view\n        returns(bool)\n    {\n        return CDTPermissions[_cdt][_grantee];\n    }\n    \n    // 获取某一cdt的结构体记录\n    function getCDTRegister(\n        bytes32 _cdt\n    )\n        public\n        view\n        returns (\n            address owner,\n            bytes32 lastChecksum,\n            address lastUpdatedBy,\n            uint256 blockNumberUpdated\n        )\n    {\n        owner = cdtList.cdts[_cdt].owner;\n        lastChecksum = cdtList.cdts[_cdt].lastChecksum;\n        lastUpdatedBy = cdtList.cdts[_cdt].lastUpdatedBy;\n        blockNumberUpdated = cdtList.cdts[_cdt].blockNumberUpdated;\n    }\n    \n    // 获取某一cdt的所有者地址\n    function getCDTOwner(bytes32 _cdt)\n        public\n        view\n        returns (address CDTOwner)\n    {\n        return cdtList.cdts[_cdt].owner;\n    }\n    \n    // 获取某一cdt的注册/更新时间\n    function getBlockNumberUpdated(bytes32 _cdt)\n        public\n        view\n        returns (uint256 blockNumberUpdated)\n    {\n        return cdtList.cdts[_cdt].blockNumberUpdated;\n    }\n\n    // 判断是否是权威机构\n    function isAuthority(\n        address _member\n    )\n        public\n        view\n        returns (bool)\n    {\n        return authorityList.authorities[_member].isAuthority;\n    }\n    \n}",
  "sourcePath": "/Users/liqibing/Research/blockchain/ownership/cdt-contracts/contracts/CDTRegistry.sol",
  "compiler": {
    "name": "solc",
    "version": "0.5.6+commit.b259423e.Emscripten.clang"
  },
  "schemaVersion": "3.1.0",
  "updatedAt": "2020-10-21T06:35:59.779Z",
  "networkType": "ethereum",
  "devdoc": {
    "author": "lqb",
    "methods": {},
    "title": "CDT主要功能"
  },
  "userdoc": {
    "methods": {}
  }
}