{
  "contractName": "TaskMarket",
  "abi": [
    {
      "constant": true,
      "inputs": [],
      "name": "taskNum",
      "outputs": [
        {
          "name": "",
          "type": "uint256"
        }
      ],
      "payable": false,
      "stateMutability": "view",
      "type": "function"
    },
    {
      "constant": true,
      "inputs": [],
      "name": "jobNum",
      "outputs": [
        {
          "name": "",
          "type": "uint256"
        }
      ],
      "payable": false,
      "stateMutability": "view",
      "type": "function"
    },
    {
      "inputs": [],
      "payable": false,
      "stateMutability": "nonpayable",
      "type": "constructor"
    },
    {
      "anonymous": false,
      "inputs": [
        {
          "indexed": true,
          "name": "_taskId",
          "type": "uint256"
        },
        {
          "indexed": true,
          "name": "_owner",
          "type": "address"
        },
        {
          "indexed": false,
          "name": "_name",
          "type": "string"
        },
        {
          "indexed": false,
          "name": "_desc",
          "type": "string"
        }
      ],
      "name": "TaskAdded",
      "type": "event"
    },
    {
      "anonymous": false,
      "inputs": [
        {
          "indexed": false,
          "name": "_taskId",
          "type": "uint256"
        },
        {
          "indexed": true,
          "name": "_jobId",
          "type": "uint256"
        },
        {
          "indexed": true,
          "name": "_owner",
          "type": "address"
        },
        {
          "indexed": true,
          "name": "_cdt",
          "type": "bytes32"
        }
      ],
      "name": "JobAdded",
      "type": "event"
    },
    {
      "constant": false,
      "inputs": [
        {
          "name": "_name",
          "type": "string"
        },
        {
          "name": "_desc",
          "type": "string"
        }
      ],
      "name": "addTask",
      "outputs": [
        {
          "name": "taskId",
          "type": "uint256"
        }
      ],
      "payable": false,
      "stateMutability": "nonpayable",
      "type": "function"
    },
    {
      "constant": false,
      "inputs": [
        {
          "name": "_cdt",
          "type": "bytes32"
        },
        {
          "name": "_taskId",
          "type": "uint256"
        }
      ],
      "name": "addJob",
      "outputs": [
        {
          "name": "jobId",
          "type": "uint256"
        }
      ],
      "payable": false,
      "stateMutability": "nonpayable",
      "type": "function"
    },
    {
      "constant": true,
      "inputs": [
        {
          "name": "_jobId",
          "type": "uint256"
        }
      ],
      "name": "getJob",
      "outputs": [
        {
          "name": "cdt",
          "type": "bytes32"
        },
        {
          "name": "status",
          "type": "uint256"
        }
      ],
      "payable": false,
      "stateMutability": "view",
      "type": "function"
    },
    {
      "constant": true,
      "inputs": [
        {
          "name": "_taskId",
          "type": "uint256"
        }
      ],
      "name": "getTask",
      "outputs": [
        {
          "name": "jobIds",
          "type": "uint256[]"
        },
        {
          "name": "status",
          "type": "uint256"
        }
      ],
      "payable": false,
      "stateMutability": "view",
      "type": "function"
    }
  ],
  "bytecode": "0x60806040526000600655600060075534801561001a57600080fd5b506106bd8061002a6000396000f3fe608060405234801561001057600080fd5b50600436106100625760003560e01c80631d65e77e146100675780634950cfe5146100df5780637446ce1c146100f9578063b37b10001461011c578063bf22c45714610249578063ff5d2b7f1461027f575b600080fd5b6100846004803603602081101561007d57600080fd5b5035610287565b6040518080602001838152602001828103825284818151815260200191508051906020019060200280838360005b838110156100ca5781810151838201526020016100b2565b50505050905001935050505060405180910390f35b6100e76102ff565b60408051918252519081900360200190f35b6100e76004803603604081101561010f57600080fd5b5080359060200135610305565b6100e76004803603604081101561013257600080fd5b81019060208101813564010000000081111561014d57600080fd5b82018360208201111561015f57600080fd5b8035906020019184600183028401116401000000008311171561018157600080fd5b91908080601f01602080910402602001604051908101604052809392919081815260200183838082843760009201919091525092959493602081019350359150506401000000008111156101d457600080fd5b8201836020820111156101e657600080fd5b8035906020019184600183028401116401000000008311171561020857600080fd5b91908080601f0160208091040260200160405190810160405280939291908181526020018383808284376000920191909152509295506103c0945050505050565b6102666004803603602081101561025f57600080fd5b5035610599565b6040805192835260208301919091528051918290030190f35b6100e76105b6565b6000818152600460208181526040808420909201805483518184028101840190945280845260609493928301828280156102e057602002820191906000526020600020905b8154815260200190600101908083116102cc575b5050506000958652505060046020526040909320600301549293915050565b60065481565b6007805460019081019182905560408051606081018252338082526020808301888152838501868152600088815260058452868120955186546001600160a01b0319166001600160a01b0390911617865591518588015551600290940193909355868352600480825284842001805495860181558352918290209093018490558151858152915186939285927fb2271a2a3df3b816d846ff82c062a7bb21df98b078a46c251b577b0336b186d892918290030190a492915050565b600680546001908101918290556040805160a08101825233815260208082018781528284018790526060830185905283516000808252818401865260808501919091528681526004835293909320825181546001600160a01b0319166001600160a01b03909116178155925180519294610442939085019291909101906105bc565b506040820151805161045e9160028401916020909101906105bc565b50606082015160038201556080820151805161048491600484019160209091019061063a565b50905050336001600160a01b0316817f9f0fc64bc461f3f2e7b56673def14c41aa9f3b52c5806b751ba1a48e46b7c69e8585604051808060200180602001838103835285818151815260200191508051906020019080838360005b838110156104f75781810151838201526020016104df565b50505050905090810190601f1680156105245780820380516001836020036101000a031916815260200191505b50838103825284518152845160209182019186019080838360005b8381101561055757818101518382015260200161053f565b50505050905090810190601f1680156105845780820380516001836020036101000a031916815260200191505b5094505050505060405180910390a392915050565b600090815260056020526040902060018101546002909101549091565b60075481565b828054600181600116156101000203166002900490600052602060002090601f016020900481019282601f106105fd57805160ff191683800117855561062a565b8280016001018555821561062a579182015b8281111561062a57825182559160200191906001019061060f565b50610636929150610674565b5090565b82805482825590600052602060002090810192821561062a579160200282018281111561062a57825182559160200191906001019061060f565b61068e91905b80821115610636576000815560010161067a565b9056fea165627a7a72305820b097822f6ea7d84de3a3ea8a555c9044bf4450df8ae31f86fd46c2e1e73d45c50029",
  "source": "pragma solidity 0.5.6;\n\nimport './Library.sol';\n/**\n * @title 任务市场主要功能\n * @author lqb\n */\ncontract TaskMarket {\n    \n    using CDTLibrary for CDTLibrary.CDTList;    \n    using AuthorityLibrary for AuthorityLibrary.AuthorityList;\n\n    CDTLibrary.CDTList internal cdtList;\n    AuthorityLibrary.AuthorityList internal authorityList;\n\n    // 任务结构体\n    struct Task {\n        address owner;\n        string name;\n        string desc;\n        uint status;\n        uint[] jobIds;\n    }\n    \n    // 计算结构体，接收算法CDT\n    struct Job {\n        address owner;\n        bytes32 cdt;\n        uint status;\n    }\n\n    mapping(uint => Task) taskList;\n    mapping(uint => Job) jobList;\n\n    uint public taskNum = 0;\n    uint public jobNum = 0;\n    \n    event TaskAdded(\n        uint indexed _taskId,\n        address indexed _owner,\n        string _name,\n        string _desc\n    );\n\n    event JobAdded(\n        uint _taskId,\n        uint indexed _jobId,\n        address indexed _owner,\n        bytes32 indexed _cdt\n    );\n    \n\tconstructor() public {}\n  \n    // 创建新任务\n    // 暂时省略对机构的检查\n    function addTask(\n        string memory _name,\n        string memory _desc\n    )\n        public\n        returns (uint taskId)\n    {\n        taskId = taskNum + 1;\n        taskNum++;\n        taskList[taskId] = Task({\n            owner: msg.sender,\n            name: _name,\n            desc: _desc,\n            status: 1,\n            jobIds: new uint[](0)\n        });\n\n        emit TaskAdded(\n            taskId,\n            msg.sender,\n            _name,\n            _desc\n        );\n\n        return taskId;\n    }\n    \n    // 创建新计算, 算法CDT在链上存证\n    // 暂时省略对CDT所有者的检查\n    function addJob(\n        bytes32 _cdt,\n        uint _taskId\n    )\n        public\n        returns (uint jobId)\n    {\n        jobId = jobNum + 1;\n        jobNum++;\n        jobList[jobId] = Job({\n            owner: msg.sender,\n            cdt: _cdt,\n            status: 1\n        });\n\n        taskList[_taskId].jobIds.push(jobId);\n\n        emit JobAdded(\n            _taskId,\n            jobId,\n            msg.sender,\n            _cdt\n        );\n\n        return jobId;\n    }\n    \n    // 获取计算状态\n    function getJob(\n        uint _jobId\n    )\n        public\n        view\n        returns (\n            bytes32 cdt,\n            uint status\n        )\n    {\n        cdt = jobList[_jobId].cdt;\n        status = jobList[_jobId].status;\n    }\n\n    // 获取任务状态\n    function getTask(\n        uint _taskId\n    )\n        public\n        view\n        returns (\n            uint[] memory jobIds,\n            uint status\n        )\n    {\n        jobIds = taskList[_taskId].jobIds;\n        status = taskList[_taskId].status;\n    }\n\n}",
  "sourcePath": "/Users/liqibing/Research/blockchain/ownership/cdt-contracts/contracts/TaskMarket.sol",
  "compiler": {
    "name": "solc",
    "version": "0.5.6+commit.b259423e.Emscripten.clang"
  },
  "schemaVersion": "3.1.0",
  "updatedAt": "2020-10-21T06:35:59.793Z",
  "networkType": "ethereum",
  "devdoc": {
    "author": "lqb",
    "methods": {},
    "title": "任务市场主要功能"
  },
  "userdoc": {
    "methods": {}
  }
}